S018000073696D706C65206D6963726F776176652E7372656395
S11300000C942A000C9409070C9432070C945B0797
S11300100C9447000C9447000C9425090C94D308C5
S11300200C94FC080C94AA080C9447000C94DA076E
S11300300C9447000C9447000C9447000C94470020
S11300400C9447000C9447000C9447000C94470010
S11300500C94470011241FBECFE5D8E0DEBFCDBF0E
S113006011E0A0E6B0E0ECE1F5E102C005900D92EC
S1130070A031B107D9F721E0A0E1B1E001C01D92A0
S1130080A133B207E1F70E94A0030C948C0A0C94EC
S113009000000F931F93CF93DF9361E080E00E94F1
S11300A0790561E081E00E94790561E082E00E94C7
S11300B0790561E083E00E9479050EE410E025C033
S11300C060E0812F0E947905D0E018C0C4E0CD0F14
S11300D08C2F0E94FE05811110C0E12FF0E0EE0F7D
S11300E0FF1FEE0FFF1FE05AFF4FED0FF11D0081C0
S11300F08C2F0E94FE058823D9F3DF5FD43030F3C0
S113010061E0812F0E9479051F5F1430C8F2802FAF
S1130110DF91CF911F910F9108952F923F924F92AB
S11301205F926F927F928F929F92AF92BF92CF9283
S1130130DF92EF92FF920F931F93CF93DF93CDB78C
S1130140DEB728970FB6F894DEBF0FBECDBF9C83F1
S11301508B8309831A83922E832E542E452E362E9A
S1130160272E202F312F492D582D652D742D832DA9
S1130170922DA0E00E94800A31F480E3EB81FC819F
S113018080831182B9C029813A81492D582D652D6A
S1130190742D832D922DA0E00E94800ABCF48DE280
S11301A0EB81FC818083832D0E94390A29833A8361
S11301B0942E852E562E472E382E292E1E821D82D1
S11301C066246394712CF887EF833FC021E030E00C
S11301D03E832D83612C712C8B819C8198878F8326
S11301E034C0EF81F885E60DF71DFC83EB830F2EF9
S11301F0FAE0AF2EF02DB12CC12CD12CE12CF12C36
S113020000E010E029813A81492D582D652D742D87
S1130210832D922D0E94A909205DEB81FC8120830E
S113022029813A81492D582D652D742D832D922DC8
S11302300E94AB0929833A83942E852E562E472E8D
S1130240382E292EFFEF6F1A7F0A29813A81492D12
S1130250582D652D742D832D922DA0E00E94800AC7
S113026011F00CF0BECF2F8138853C832B838D8118
S11302709E81892BA9F481E090E02FC0F301E81B53
S1130280F90B31972B813C81E20FF31F2081AB8165
S1130290BC81A80FB91F3C9130832C93019602C0F6
S11302A080E090E09301772014F42F5F3F4F359561
S11302B027958217930714F31AC0F301E81BF90B6F
S11302C02B813C81E20FF31F2081AB81BC81A80FFD
S11302D0B91F3C9130832C9301969301772014F439
S11302E02F5F3F4F359527952817390734F7EB8152
S11302F0FC81E60DF71D108228960FB6F894DEBF38
S11303000FBECDBFDF91CF911F910F91FF90EF9062
S1130310DF90CF90BF90AF909F908F907F906F9021
S11303205F904F903F902F900895CF93C82F60E037
S113033082E10E9479056C2F661F6627661F87E19C
S11303400E947905C6FB662760F986E10E9479055B
S1130350C5FB662760F985E10E947905C4FB662721
S113036060F984E10E94790561E083E10E947905E6
S11303708FEC97E00197F1F700C0000060E083E1A3
S11303800E9479058FEC97E00197F1F700C0000017
S1130390C3FB662760F987E10E947905C2FB6627E3
S11303A060F986E10E947905C1FB662760F985E161
S11303B00E9479056C2F617084E10E94790561E0E7
S11303C083E10E9479058FEC97E00197F1F700C073
S11303D0000060E083E10E9479058FEC97E00197CB
S11303E0F1F700C00000CF910895CF93C82F61E0CA
S11303F082E10E9479056C2F661F6627661F87E1DC
S11304000E947905C6FB662760F986E10E9479059A
S1130410C5FB662760F985E10E947905C4FB662760
S113042060F984E10E94790561E083E10E94790525
S11304308FEC97E00197F1F700C0000060E083E1E2
S11304400E9479058FEC97E00197F1F700C0000056
S1130450C3FB662760F987E10E947905C2FB662722
S113046060F986E10E947905C1FB662760F985E1A0
S11304700E9479056C2F617084E10E94790561E026
S113048083E10E9479058FEC97E00197F1F700C0B2
S1130490000060E083E10E9479058FEC97E001970A
S11304A0F1F700C00000CF9108952FE788E391E0B1
S11304B0215080409040E1F700C0000082E00E949B
S11304C0950188E20E9495018FEC97E00197F1F77E
S11304D000C000008CE00E9495018FEC97E001972A
S11304E0F1F700C0000081E00E9495018FE99FE0D0
S11304F00197F1F700C0000086E00E94950108957D
S11305000E94F50108950F931F93CF93DF938C01FD
S1130510C0E0D0E003C00E94F5012196F801EC0F81
S1130520FD1F80818111F7CFDF91CF911F910F9132
S11305300895EF92FF920F931F93CF93DF93CDB75C
S1130540DEB7A0970FB6F894DEBF0FBECDBFDE01B5
S113055011967D01E0E21D92EA95E9F7022F132F2F
S1130560242F352F462F572F682F792FC7010E942C
S11305708D00C7010E948302A0960FB6F894DEBFD7
S11305800FBECDBFDF91CF911F910F91FF90EF90E0
S1130590089581E00E9495018FE99FE00197F1F7AA
S11305A000C000000895811105C080E8860F0E94F4
S11305B095010895813021F480EC860F0E94950105
S11305C008958EE10E94FE0581110BC09091700088
S11305D081E08927809370008EE10E94FE058823C4
S11305E0D9F38FE10E94FE0581110BC09091710037
S11305F081E08927809371008FE10E94FE058823A2
S1130600D9F30895CF93DF9388E00E94410689E0EF
S11306100E944106809113019091140101979093D7
S113062014018093130160E081E00E94D30282E709
S113063090E00E9483028091130190911401282F6D
S1130640392F40E050E060E070E080E090E00E94EC
S113065099028091130190911401892B29F4E0915E
S11306601501F09116010995DF91CF91089510922B
S1130670110160E088E00E94790560E089E00E9451
S1130680790560E08AE00E94790560E08BE00E94D1
S113069079050E94A10808958091120181111AC060
S11306A0809111018130B1F40E94370381E080937D
S11306B0120160E080E00E94D30286EA90E00E948A
S11306C0830260E080E00E94D30281E890E00E940F
S11306D08302089580911201813019F5109211015D
S11306E01092120110921401109213011092100131
S11306F060E080E00E94D30285EA90E00E948302D9
S113070060E080E00E94D30280E990E00E948302CE
S113071060E081E00E94D30282EA90E00E948302BA
S1130720089560E081E00E94D30287EA90E00E948D
S11307308302109214011092130110921001089573
S113074078940E9431060E94550280E00E9482063D
S113075062E080E00E94940668E574E080E00E9414
S1130760F40681E00E94820662E081E00E94940621
S11307706CE473E081E00E94F40661EE72E084E6CA
S113078090E00E947E0960E080E00E94D30289EC40
S113079090E00E948302809111018111FCCF80912D
S11307A012018111F8CF80917000813029F461E049
S11307B088E00E94790504C060E088E00E94790521
S11307C080917100813029F461E089E00E9479050B
S11307D004C060E089E00E947905F89460E081E05B
S11307E00E94D3028091130190911401282F392F74
S11307F040E050E060E070E080E090E00E94990208
S113080078940E944900C82F8E3429F2D0EDD80F75
S1130810DA3020F5F8946091100181E0860F80931E
S1130820100181E00E94D3028C2F0E9480027894F0
S113083080911301909114019C01220F331F880FA2
S1130840991F880F991F880F991F820F931F8D0F6F
S1130850911D90931401809313019DCF1092100168
S11308609ACF0F931F93CF93DF93EC018B0120E07A
S113087040E065E082E00E940308CE01880F991FE2
S1130880880F991F880F991F8C1B9D0B01979BBD87
S11308908ABD109316010093150182E093E00E9433
S11308A0A5080E949D08DF91CF911F910F91089593
S11308B08091130190911401892B29F1809170008A
S11308C0813009F5809171008130E9F48093110140
S11308D01092120161E08AE00E94790561E08BE0E8
S11308E00E9479050E94C90260E080E00E94D30260
S11308F083ED90E00E94830267E373E088EE93E067
S11309000E9431040895109211010E94C90260E00E
S113091080E00E94D30280EE90E00E94830208955A
S1130920982F9770869586958695613009F441C015
S113093020F0623009F48DC00895813099F028F0D8
S11309408230E9F0833041F108954AB321E030E088
S1130950B90102C0660F771F9A95E2F7CB01842B89
S11309608ABB089547B321E030E0B90102C0660FA5
S1130970771F9A95E2F7CB01842B87BB089544B384
S113098021E030E0B90102C0660F771F9A95E2F7C3
S1130990CB01842B84BB089541B321E030E0B9013D
S11309A002C0660F771F9A95E2F7CB01842B81BBB7
S11309B008958130C1F028F0823039F18330B9F1E3
S11309C008954AB321E030E0B90102C0660F771FF1
S11309D09A95E2F7CB018095942F98239ABB9BB309
S11309E089238BBB089547B321E030E0B90102C0ED
S11309F0660F771F9A95E2F7CB018095942F982381
S1130A0097BB98B3892388BB089544B321E030E0B1
S1130A10B90102C0660F771F9A95E2F7CB01809562
S1130A20942F982394BB95B3892385BB089541B330
S1130A3021E030E0B90102C0660F771F9A95E2F712
S1130A40CB018095942F982391BB92B3892382BBC9
S1130A5008958130C1F028F0823039F18330B9F142
S1130A6008954AB321E030E0B90102C0660F771F50
S1130A709A95E2F7CB01962F909594239ABB9BB35A
S1130A80892B8BBB089547B321E030E0B90102C044
S1130A90660F771F9A95E2F7CB01962F90959423D2
S1130AA097BB98B3892B88BB089544B321E030E009
S1130AB0B90102C0660F771F9A95E2F7CB01962F12
S1130AC09095942394BB95B3892B85BB089541B32A
S1130AD021E030E0B90102C0660F771F9A95E2F772
S1130AE0CB01962F9095942391BB92B3892B82BB13
S1130AF00895982F97708695869586956130E1F5CF
S1130B00813099F028F08230E9F0833041F1089582
S1130B104BB321E030E0B90102C0660F771F9A950C
S1130B20E2F7CB01842B8BBB089548B321E030E07E
S1130B30B90102C0660F771F9A95E2F7CB01842BA7
S1130B4088BB089545B321E030E0B90102C0660FC7
S1130B50771F9A95E2F7CB01842B85BB089542B3A6
S1130B6021E030E0B90102C0660F771F9A95E2F7E1
S1130B70CB01842B82BB089561113FC08130A1F069
S1130B8028F08230F9F0833059F108954BB321E015
S1130B9030E0B90102C0660F771F9A95E2F7CB01E6
S1130BA0809584238BBB089548B321E030E0B901DC
S1130BB002C0660F771F9A95E2F7CB0180958423D4
S1130BC088BB089545B321E030E0B90102C0660F47
S1130BD0771F9A95E2F7CB018095842385BB08950E
S1130BE042B321E030E0B90102C0660F771F9A9545
S1130BF0E2F7CB018095842382BB0895282F2770C8
S1130C00869586958695813079F028F08230A9F012
S1130C108330E1F024C089B390E002C095958795B4
S1130C202A95E2F78170089586B390E002C0959505
S1130C3087952A95E2F78170089583B390E002C006
S1130C40959587952A95E2F78170089580B390E091
S1130C5002C0959587952A95E2F78170089580E002
S1130C600895CF93C0E009C0EC2FF0E0E151FF4FAD
S1130C7060818C2F0E949004CF5FC032A8F3CF9183
S1130C800895982F9770869586958695813099F06A
S1130C9028F08230E9F0833041F108954BB321E02C
S1130CA030E0B90102C0660F771F9A95E2F7CB01D5
S1130CB084278BBB089548B321E030E0B90102C01A
S1130CC0660F771F9A95E2F7CB01842788BB0895B6
S1130CD045B321E030E0B90102C0660F771F9A9551
S1130CE0E2F7CB01842785BB089542B321E030E0CD
S1130CF0B90102C0660F771F9A95E2F7CB018427EA
S1130D0082BB0895813041F018F0823049F0089593
S1130D108BB780648BBF08958BB780688BBF0895B1
S1130D208BB780628BBF0895813049F120F0823007
S1130D3009F449C00895613069F028F0623089F0FF
S1130D406330B1F0089585B78E7F85BF85B78D7FF9
S1130D5085BF089585B7816085BF85B78D7F85BFC1
S1130D60089585B78E7F85BF85B7826085BF089556
S1130D7085B7816085BF85B7826085BF089561307E
S1130D8069F028F0623089F06330B1F0089585B7D6
S1130D908B7F85BF85B7877F85BF089585B78460BE
S1130DA085BF85B7877F85BF089585B78B7F85BF4E
S1130DB085B7886085BF089585B7846085BF85B78A
S1130DC0886085BF0895623019F0633029F008C047
S1130DD084B78F7B84BF089584B7806484BF0895EB
S1130DE084B78F7B84BF0895813049F018F0823036
S1130DF059F0089570931C0160931B01089570933A
S1130E001A016093190108957093180160931701F2
S1130E1008951F920F920FB60F9211242F933F93B0
S1130E204F935F936F937F938F939F93AF93BF93EE
S1130E30EF93FF93E0911B01F0911C01309709F0AF
S1130E400995FF91EF91BF91AF919F918F917F9100
S1130E506F915F914F913F912F910F900FBE0F9023
S1130E601F9018951F920F920FB60F9211242F9373
S1130E703F934F935F936F937F938F939F93AF931E
S1130E80BF93EF93FF93E0911901F0911A0130970A
S1130E9009F00995FF91EF91BF91AF919F918F91C7
S1130EA07F916F915F914F913F912F910F900FBE62
S1130EB00F901F9018951F920F920FB60F92112446
S1130EC02F933F934F935F936F937F938F939F934E
S1130ED0AF93BF93EF93FF93E0911701F091180143
S1130EE0309709F00995FF91EF91BF91AF919F91D0
S1130EF08F917F916F915F914F913F912F910F90BF
S1130F000FBE0F901F901895813069F028F0823041
S1130F1089F08330B1F01BC083B78F7B83BF83B765
S1130F20877F83BF14C083B7806483BF83B7877F01
S1130F3083BF0DC083B78F7B83BF83B7886083BFB4
S1130F4006C083B7806483BF83B7886083BF83B7D9
S1130F50887F83BF83B7682B63BF413069F028F073
S1130F60423089F04330B1F0089583B78F7E83BF58
S1130F7083B78F7D83BF089583B7806183BF83B7B1
S1130F808F7D83BF089583B78F7E83BF83B78062CD
S1130F9083BF089583B7806183BF83B7806283BFB3
S1130FA0089589B7816089BF08959093260180933D
S1130FB0250108951F920F920FB60F9211242F93BB
S1130FC03F934F935F936F937F938F939F93AF93CD
S1130FD0BF93EF93FF93E0912501F09126013097A1
S1130FE009F00995FF91EF91BF91AF919F918F9176
S1130FF07F916F915F914F913F912F910F900FBE11
S11310000F901F901895823029F128F4882341F01D
S1131010813099F045C0833051F18430A9F140C04A
S11310208FB58E7F8FBD8FB58D7F8FBD8EB5877F3A
S11310308EBD8EB58F7E8EBD33C08FB58E7F8FBD36
S11310408FB58D7F8FBD8EB588608EBD8EB5806166
S11310508EBD26C08FB58E7F8FBD8FB58D7F8FBD22
S11310608EB588608EBD8EB58F7E8EBD19C08FB54E
S11310708E7F8FBD8FB582608FBD8EB588608EBD2B
S11310808EB580618EBD0CC08FB581608FBD8FB56C
S113109082608FBD8EB588608EBD8EB580618EBD39
S11310A0413069F028F0423089F04330B1F01BC080
S11310B08FB58F7B8FBD8FB58F778FBD14C08FB5E4
S11310C080648FBD8FB58F778FBD0DC08FB58F7B3B
S11310D08FBD8FB580688FBD06C08FB580648FBD0E
S11310E08FB580688FBD213069F028F0223089F0F7
S11310F02330B1F01BC08FB58F7E8FBD8FB58F7D30
S11311008FBD14C08FB580618FBD8FB58F7D8FBDAE
S11311100DC08FB58F7E8FBD8FB580628FBD06C029
S11311208FB580618FBD8FB580628FBD8EB5887F8E
S11311308EBD8EB5682B6EBD089589B7806189BF59
S1131140089589B78F7E89BF089590932201809373
S1131150210108951F920F920FB60F9211242F931D
S11311603F934F935F936F937F938F939F93AF932B
S1131170BF93EF93FF93E0912301F0912401309703
S113118009F00995FF91EF91BF91AF919F918F91D4
S11311907F916F915F914F913F912F910F900FBE6F
S11311A00F901F9018951F920F920FB60F92112453
S11311B02F933F934F935F936F937F938F939F935B
S11311C0AF93BF93EF93FF93E0912101F09122013C
S11311D0309709F00995FF91EF91BF91AF919F91DD
S11311E08F917F916F915F914F913F912F910F90CC
S11311F00FBE0F901F9018951F920F920FB60F926B
S113120011242F933F934F935F936F937F938F9307
S11312109F93AF93BF93EF93FF93E0911F01F091DE
S11312202001309709F00995FF91EF91BF91AF919B
S11312309F918F917F916F915F914F913F912F91EA
S11312400F900FBE0F901F9018951F920F920FB61C
S11312500F9211242F933F934F935F936F937F9338
S11312608F939F93AF93BF93EF93FF93E0911D01EF
S1131270F0911E01309709F00995FF91EF91BF910C
S1131280AF919F918F917F916F915F914F913F911A
S11312902F910F900FBE0F901F90189586E082BF7C
S11312A08091270190912801A0912901B0912A01F0
S11312B00196A11DB11D8093270190932801A0934D
S11312C02901B0932A0140912B0150912C01609186
S11312D02D0170912E0184179507A607B70769F4AD
S11312E010922701109228011092290110922A01CC
S11312F0E0912F01F0913001099508950F931F9308
S1131300CF93DF93EC018B0140E062E080E00E9428
S1131310840786E082BFCE01880F991F880F991F2A
S1131320A0E0B0E080932B0190932C01A0932D01B9
S1131330B0932E011093300100932F018EE499E0B5
S11313400E94D5070E94D107DF91CF911F910F9181
S11313500895689401C0E894F92FF12B12F00C94CD
S1131360DD09A0E0B0E0E7EBF9E00C944F0A092EA8
S1131370059422F40E94390A112392F4F0E80F260E
S1131380FFEFE094F09400951095B094C094D0943D
S1131390A194BF0ACF0ADF0AEF0AFF0A0F0B1F0B43
S11313A00E94E80907FC0E94390ACDB7DEB7ECE0D9
S11313B00C946B0A689401C0E8948F929F92CF9327
S11313C0DF930E94E809DF91CF919F908F90089559
S11313D088249924F401E401B0E49F93AA279A1580
S11313E08B049C04ED05FE05CF05D007A10798F4F6
S11313F0AD2FDC2FCF2FFE2FE92D982C892E982F7F
S1131400872F762F652F542F432F322F2227B85042
S113141031F7BF9127C01B2EBF91BB27220F331F6B
S1131420441F551F661F771F881F991F881C991C0E
S1131430EE1FFF1FCC1FDD1FAA1FBB1F8A149B04B6
S1131440EC05FD05CE05DF05A007B10748F08A18B5
S11314509B08EC09FD09CE09DF09A00BB10B216043
S11314601A94E1F62EF49401AF01BE01CD01000CF3
S11314700895609570958095909530954095509518
S113148021953F4F4F4F5F4F6F4F7F4F8F4F9F4F70
S113149008952F923F924F925F926F927F928F9214
S11314A09F92AF92BF92CF92DF92EF92FF920F93EF
S11314B01F93CF93DF93CDB7DEB7CA1BDB0B0FB6F9
S11314C0F894DEBF0FBECDBF09942A8839884888B6
S11314D05F846E847D848C849B84AA84B984C8844C
S11314E0DF80EE80FD800C811B81AA81B981CE0F43
S11314F0D11D0FB6F894DEBF0FBECDBFED01089528
S11315000024A7FD00942A17300540055005600506
S10F15107005800590050895F894FFCF45
S113151C3738392F3435362A3132332D63303D2B5D
S113152C010172656D61696E696E6754696D652040
S113153C0048656174696E67205061757365640059
S113154C48656174696E672063616E63656C65647C
S113155C200020202020202020202020202020209B
S113156C202020202020202020202020202020206B
S113157C20202020202020200048656C6C6F203A0D
S113158C2920004D2069732048656174696E6700D9
S113159C436865636B2072657175657374730000C1
S11315AC0000000202020200000000010100010020
S11315BC0000000000000001000202000002020012
S9030000FC
